{
  "_format": "hh-sol-artifact-1",
  "contractName": "BoredApe",
  "sourceName": "contracts/BoredApe.sol",
  "abi": [
    {
      "inputs": [
        {
          "internalType": "string",
          "name": "uri",
          "type": "string"
        },
        {
          "internalType": "bytes32",
          "name": "merkleroot",
          "type": "bytes32"
        },
        {
          "internalType": "address",
          "name": "_proxyRegistryAddress",
          "type": "address"
        }
      ],
      "stateMutability": "nonpayable",
      "type": "constructor"
    },
    {
      "anonymous": false,
      "inputs": [
        {
          "indexed": true,
          "internalType": "address",
          "name": "owner",
          "type": "address"
        },
        {
          "indexed": true,
          "internalType": "address",
          "name": "approved",
          "type": "address"
        },
        {
          "indexed": true,
          "internalType": "uint256",
          "name": "tokenId",
          "type": "uint256"
        }
      ],
      "name": "Approval",
      "type": "event"
    },
    {
      "anonymous": false,
      "inputs": [
        {
          "indexed": true,
          "internalType": "address",
          "name": "owner",
          "type": "address"
        },
        {
          "indexed": true,
          "internalType": "address",
          "name": "operator",
          "type": "address"
        },
        {
          "indexed": false,
          "internalType": "bool",
          "name": "approved",
          "type": "bool"
        }
      ],
      "name": "ApprovalForAll",
      "type": "event"
    },
    {
      "anonymous": false,
      "inputs": [
        {
          "indexed": true,
          "internalType": "contract IERC20",
          "name": "token",
          "type": "address"
        },
        {
          "indexed": false,
          "internalType": "address",
          "name": "to",
          "type": "address"
        },
        {
          "indexed": false,
          "internalType": "uint256",
          "name": "amount",
          "type": "uint256"
        }
      ],
      "name": "ERC20PaymentReleased",
      "type": "event"
    },
    {
      "anonymous": false,
      "inputs": [
        {
          "indexed": true,
          "internalType": "address",
          "name": "previousOwner",
          "type": "address"
        },
        {
          "indexed": true,
          "internalType": "address",
          "name": "newOwner",
          "type": "address"
        }
      ],
      "name": "OwnershipTransferred",
      "type": "event"
    },
    {
      "anonymous": false,
      "inputs": [
        {
          "indexed": false,
          "internalType": "address",
          "name": "account",
          "type": "address"
        },
        {
          "indexed": false,
          "internalType": "uint256",
          "name": "shares",
          "type": "uint256"
        }
      ],
      "name": "PayeeAdded",
      "type": "event"
    },
    {
      "anonymous": false,
      "inputs": [
        {
          "indexed": false,
          "internalType": "address",
          "name": "from",
          "type": "address"
        },
        {
          "indexed": false,
          "internalType": "uint256",
          "name": "amount",
          "type": "uint256"
        }
      ],
      "name": "PaymentReceived",
      "type": "event"
    },
    {
      "anonymous": false,
      "inputs": [
        {
          "indexed": false,
          "internalType": "address",
          "name": "to",
          "type": "address"
        },
        {
          "indexed": false,
          "internalType": "uint256",
          "name": "amount",
          "type": "uint256"
        }
      ],
      "name": "PaymentReleased",
      "type": "event"
    },
    {
      "anonymous": false,
      "inputs": [
        {
          "indexed": true,
          "internalType": "address",
          "name": "from",
          "type": "address"
        },
        {
          "indexed": true,
          "internalType": "address",
          "name": "to",
          "type": "address"
        },
        {
          "indexed": true,
          "internalType": "uint256",
          "name": "tokenId",
          "type": "uint256"
        }
      ],
      "name": "Transfer",
      "type": "event"
    },
    {
      "inputs": [
        {
          "internalType": "address",
          "name": "",
          "type": "address"
        }
      ],
      "name": "_presaleClaimed",
      "outputs": [
        {
          "internalType": "uint256",
          "name": "",
          "type": "uint256"
        }
      ],
      "stateMutability": "view",
      "type": "function"
    },
    {
      "inputs": [
        {
          "internalType": "address",
          "name": "to",
          "type": "address"
        },
        {
          "internalType": "uint256",
          "name": "tokenId",
          "type": "uint256"
        }
      ],
      "name": "approve",
      "outputs": [],
      "stateMutability": "nonpayable",
      "type": "function"
    },
    {
      "inputs": [
        {
          "internalType": "address",
          "name": "owner",
          "type": "address"
        }
      ],
      "name": "balanceOf",
      "outputs": [
        {
          "internalType": "uint256",
          "name": "",
          "type": "uint256"
        }
      ],
      "stateMutability": "view",
      "type": "function"
    },
    {
      "inputs": [],
      "name": "baseExtension",
      "outputs": [
        {
          "internalType": "string",
          "name": "",
          "type": "string"
        }
      ],
      "stateMutability": "view",
      "type": "function"
    },
    {
      "inputs": [],
      "name": "baseURI",
      "outputs": [
        {
          "internalType": "string",
          "name": "",
          "type": "string"
        }
      ],
      "stateMutability": "view",
      "type": "function"
    },
    {
      "inputs": [
        {
          "internalType": "uint256",
          "name": "tokenId",
          "type": "uint256"
        }
      ],
      "name": "getApproved",
      "outputs": [
        {
          "internalType": "address",
          "name": "",
          "type": "address"
        }
      ],
      "stateMutability": "view",
      "type": "function"
    },
    {
      "inputs": [
        {
          "internalType": "address",
          "name": "owner",
          "type": "address"
        },
        {
          "internalType": "address",
          "name": "operator",
          "type": "address"
        }
      ],
      "name": "isApprovedForAll",
      "outputs": [
        {
          "internalType": "bool",
          "name": "",
          "type": "bool"
        }
      ],
      "stateMutability": "view",
      "type": "function"
    },
    {
      "inputs": [],
      "name": "maxSupply",
      "outputs": [
        {
          "internalType": "uint256",
          "name": "",
          "type": "uint256"
        }
      ],
      "stateMutability": "view",
      "type": "function"
    },
    {
      "inputs": [],
      "name": "name",
      "outputs": [
        {
          "internalType": "string",
          "name": "",
          "type": "string"
        }
      ],
      "stateMutability": "view",
      "type": "function"
    },
    {
      "inputs": [],
      "name": "notRevealedUri",
      "outputs": [
        {
          "internalType": "string",
          "name": "",
          "type": "string"
        }
      ],
      "stateMutability": "view",
      "type": "function"
    },
    {
      "inputs": [],
      "name": "owner",
      "outputs": [
        {
          "internalType": "address",
          "name": "",
          "type": "address"
        }
      ],
      "stateMutability": "view",
      "type": "function"
    },
    {
      "inputs": [
        {
          "internalType": "uint256",
          "name": "tokenId",
          "type": "uint256"
        }
      ],
      "name": "ownerOf",
      "outputs": [
        {
          "internalType": "address",
          "name": "",
          "type": "address"
        }
      ],
      "stateMutability": "view",
      "type": "function"
    },
    {
      "inputs": [],
      "name": "paused",
      "outputs": [
        {
          "internalType": "bool",
          "name": "",
          "type": "bool"
        }
      ],
      "stateMutability": "view",
      "type": "function"
    },
    {
      "inputs": [
        {
          "internalType": "uint256",
          "name": "index",
          "type": "uint256"
        }
      ],
      "name": "payee",
      "outputs": [
        {
          "internalType": "address",
          "name": "",
          "type": "address"
        }
      ],
      "stateMutability": "view",
      "type": "function"
    },
    {
      "inputs": [],
      "name": "presaleM",
      "outputs": [
        {
          "internalType": "bool",
          "name": "",
          "type": "bool"
        }
      ],
      "stateMutability": "view",
      "type": "function"
    },
    {
      "inputs": [
        {
          "internalType": "address",
          "name": "account",
          "type": "address"
        },
        {
          "internalType": "uint256",
          "name": "_amount",
          "type": "uint256"
        },
        {
          "internalType": "bytes32[]",
          "name": "_proof",
          "type": "bytes32[]"
        }
      ],
      "name": "presaleMint",
      "outputs": [],
      "stateMutability": "payable",
      "type": "function"
    },
    {
      "inputs": [],
      "name": "publicM",
      "outputs": [
        {
          "internalType": "bool",
          "name": "",
          "type": "bool"
        }
      ],
      "stateMutability": "view",
      "type": "function"
    },
    {
      "inputs": [
        {
          "internalType": "uint256",
          "name": "_amount",
          "type": "uint256"
        }
      ],
      "name": "publicSaleMint",
      "outputs": [],
      "stateMutability": "payable",
      "type": "function"
    },
    {
      "inputs": [
        {
          "internalType": "address",
          "name": "account",
          "type": "address"
        }
      ],
      "name": "releasable",
      "outputs": [
        {
          "internalType": "uint256",
          "name": "",
          "type": "uint256"
        }
      ],
      "stateMutability": "view",
      "type": "function"
    },
    {
      "inputs": [
        {
          "internalType": "contract IERC20",
          "name": "token",
          "type": "address"
        },
        {
          "internalType": "address",
          "name": "account",
          "type": "address"
        }
      ],
      "name": "releasable",
      "outputs": [
        {
          "internalType": "uint256",
          "name": "",
          "type": "uint256"
        }
      ],
      "stateMutability": "view",
      "type": "function"
    },
    {
      "inputs": [
        {
          "internalType": "address payable",
          "name": "account",
          "type": "address"
        }
      ],
      "name": "release",
      "outputs": [],
      "stateMutability": "nonpayable",
      "type": "function"
    },
    {
      "inputs": [
        {
          "internalType": "contract IERC20",
          "name": "token",
          "type": "address"
        },
        {
          "internalType": "address",
          "name": "account",
          "type": "address"
        }
      ],
      "name": "release",
      "outputs": [],
      "stateMutability": "nonpayable",
      "type": "function"
    },
    {
      "inputs": [
        {
          "internalType": "contract IERC20",
          "name": "token",
          "type": "address"
        },
        {
          "internalType": "address",
          "name": "account",
          "type": "address"
        }
      ],
      "name": "released",
      "outputs": [
        {
          "internalType": "uint256",
          "name": "",
          "type": "uint256"
        }
      ],
      "stateMutability": "view",
      "type": "function"
    },
    {
      "inputs": [
        {
          "internalType": "address",
          "name": "account",
          "type": "address"
        }
      ],
      "name": "released",
      "outputs": [
        {
          "internalType": "uint256",
          "name": "",
          "type": "uint256"
        }
      ],
      "stateMutability": "view",
      "type": "function"
    },
    {
      "inputs": [],
      "name": "renounceOwnership",
      "outputs": [],
      "stateMutability": "nonpayable",
      "type": "function"
    },
    {
      "inputs": [],
      "name": "reveal",
      "outputs": [],
      "stateMutability": "nonpayable",
      "type": "function"
    },
    {
      "inputs": [],
      "name": "revealed",
      "outputs": [
        {
          "internalType": "bool",
          "name": "",
          "type": "bool"
        }
      ],
      "stateMutability": "view",
      "type": "function"
    },
    {
      "inputs": [],
      "name": "root",
      "outputs": [
        {
          "internalType": "bytes32",
          "name": "",
          "type": "bytes32"
        }
      ],
      "stateMutability": "view",
      "type": "function"
    },
    {
      "inputs": [
        {
          "internalType": "address",
          "name": "from",
          "type": "address"
        },
        {
          "internalType": "address",
          "name": "to",
          "type": "address"
        },
        {
          "internalType": "uint256",
          "name": "tokenId",
          "type": "uint256"
        }
      ],
      "name": "safeTransferFrom",
      "outputs": [],
      "stateMutability": "nonpayable",
      "type": "function"
    },
    {
      "inputs": [
        {
          "internalType": "address",
          "name": "from",
          "type": "address"
        },
        {
          "internalType": "address",
          "name": "to",
          "type": "address"
        },
        {
          "internalType": "uint256",
          "name": "tokenId",
          "type": "uint256"
        },
        {
          "internalType": "bytes",
          "name": "data",
          "type": "bytes"
        }
      ],
      "name": "safeTransferFrom",
      "outputs": [],
      "stateMutability": "nonpayable",
      "type": "function"
    },
    {
      "inputs": [
        {
          "internalType": "address",
          "name": "operator",
          "type": "address"
        },
        {
          "internalType": "bool",
          "name": "approved",
          "type": "bool"
        }
      ],
      "name": "setApprovalForAll",
      "outputs": [],
      "stateMutability": "nonpayable",
      "type": "function"
    },
    {
      "inputs": [
        {
          "internalType": "string",
          "name": "_newBaseExtension",
          "type": "string"
        }
      ],
      "name": "setBaseExtension",
      "outputs": [],
      "stateMutability": "nonpayable",
      "type": "function"
    },
    {
      "inputs": [
        {
          "internalType": "string",
          "name": "_tokenBaseURI",
          "type": "string"
        }
      ],
      "name": "setBaseURI",
      "outputs": [],
      "stateMutability": "nonpayable",
      "type": "function"
    },
    {
      "inputs": [
        {
          "internalType": "bytes32",
          "name": "merkleroot",
          "type": "bytes32"
        }
      ],
      "name": "setMerkleRoot",
      "outputs": [],
      "stateMutability": "nonpayable",
      "type": "function"
    },
    {
      "inputs": [
        {
          "internalType": "string",
          "name": "_notRevealedURI",
          "type": "string"
        }
      ],
      "name": "setNotRevealedURI",
      "outputs": [],
      "stateMutability": "nonpayable",
      "type": "function"
    },
    {
      "inputs": [
        {
          "internalType": "address",
          "name": "account",
          "type": "address"
        }
      ],
      "name": "shares",
      "outputs": [
        {
          "internalType": "uint256",
          "name": "",
          "type": "uint256"
        }
      ],
      "stateMutability": "view",
      "type": "function"
    },
    {
      "inputs": [
        {
          "internalType": "bytes4",
          "name": "interfaceId",
          "type": "bytes4"
        }
      ],
      "name": "supportsInterface",
      "outputs": [
        {
          "internalType": "bool",
          "name": "",
          "type": "bool"
        }
      ],
      "stateMutability": "view",
      "type": "function"
    },
    {
      "inputs": [],
      "name": "symbol",
      "outputs": [
        {
          "internalType": "string",
          "name": "",
          "type": "string"
        }
      ],
      "stateMutability": "view",
      "type": "function"
    },
    {
      "inputs": [],
      "name": "togglePause",
      "outputs": [],
      "stateMutability": "nonpayable",
      "type": "function"
    },
    {
      "inputs": [],
      "name": "togglePresale",
      "outputs": [],
      "stateMutability": "nonpayable",
      "type": "function"
    },
    {
      "inputs": [],
      "name": "togglePublicSale",
      "outputs": [],
      "stateMutability": "nonpayable",
      "type": "function"
    },
    {
      "inputs": [
        {
          "internalType": "uint256",
          "name": "tokenId",
          "type": "uint256"
        }
      ],
      "name": "tokenURI",
      "outputs": [
        {
          "internalType": "string",
          "name": "",
          "type": "string"
        }
      ],
      "stateMutability": "view",
      "type": "function"
    },
    {
      "inputs": [
        {
          "internalType": "contract IERC20",
          "name": "token",
          "type": "address"
        }
      ],
      "name": "totalReleased",
      "outputs": [
        {
          "internalType": "uint256",
          "name": "",
          "type": "uint256"
        }
      ],
      "stateMutability": "view",
      "type": "function"
    },
    {
      "inputs": [],
      "name": "totalReleased",
      "outputs": [
        {
          "internalType": "uint256",
          "name": "",
          "type": "uint256"
        }
      ],
      "stateMutability": "view",
      "type": "function"
    },
    {
      "inputs": [],
      "name": "totalShares",
      "outputs": [
        {
          "internalType": "uint256",
          "name": "",
          "type": "uint256"
        }
      ],
      "stateMutability": "view",
      "type": "function"
    },
    {
      "inputs": [],
      "name": "totalSupply",
      "outputs": [
        {
          "internalType": "uint256",
          "name": "",
          "type": "uint256"
        }
      ],
      "stateMutability": "view",
      "type": "function"
    },
    {
      "inputs": [
        {
          "internalType": "address",
          "name": "from",
          "type": "address"
        },
        {
          "internalType": "address",
          "name": "to",
          "type": "address"
        },
        {
          "internalType": "uint256",
          "name": "tokenId",
          "type": "uint256"
        }
      ],
      "name": "transferFrom",
      "outputs": [],
      "stateMutability": "nonpayable",
      "type": "function"
    },
    {
      "inputs": [
        {
          "internalType": "address",
          "name": "newOwner",
          "type": "address"
        }
      ],
      "name": "transferOwnership",
      "outputs": [],
      "stateMutability": "nonpayable",
      "type": "function"
    },
    {
      "stateMutability": "payable",
      "type": "receive"
    }
  ],
  "bytecode": "0x606460115561010060405260416080818152906200399460a03980516200002f916013916020909101906200066e565b5060408051808201909152600580825264173539b7b760d91b60209092019182526200005e916014916200066e565b506015805463ffffffff19166301000000179055600560165566038d7ea4c68000601855604080516020810190915260198152620000a190601a906001620006fd565b50604080516020810190915273eb8fb2f6d41706759b8544d5ada16fc710211ca28152620000d490601b90600162000740565b50348015620000e257600080fd5b50604051620039d5380380620039d58339810160408190526200010591620007e2565b601b8054806020026020016040519081016040528092919081815260200182805480156200015d57602002820191906000526020600020905b81546001600160a01b031681526001909101906020018083116200013e575b5050505050601a805480602002602001604051908101604052809291908181526020018280548015620001b057602002820191906000526020600020905b8154815260200190600101908083116200019b575b5050604080518082018252600e81526d426f7265644170654574686c617360901b6020808301918252835180850190945260048452634150454560e01b908401528151919550919350620002099250600091906200066e565b5080516200021f9060019060208401906200066e565b5050506200023c62000236620003a960201b60201c565b620003ad565b60016007558051825114620002b35760405162461bcd60e51b815260206004820152603260248201527f5061796d656e7453706c69747465723a2070617965657320616e6420736861726044820152710cae640d8cadccee8d040dad2e6dac2e8c6d60731b60648201526084015b60405180910390fd5b6000825111620003065760405162461bcd60e51b815260206004820152601a60248201527f5061796d656e7453706c69747465723a206e6f207061796565730000000000006044820152606401620002aa565b60005b825181101562000372576200035d8382815181106200032c576200032c620008dd565b6020026020010151838381518110620003495762000349620008dd565b6020026020010151620003ff60201b60201c565b80620003698162000909565b91505062000309565b505050600f829055601080546001600160a01b0319166001600160a01b038316179055620003a083620005ed565b5050506200097f565b3390565b600680546001600160a01b038381166001600160a01b0319831681179093556040519116919082907f8be0079c531659141344cd1fd0a4f28419497f9722a3daafe3b4186f6b6457e090600090a35050565b6001600160a01b0382166200046c5760405162461bcd60e51b815260206004820152602c60248201527f5061796d656e7453706c69747465723a206163636f756e74206973207468652060448201526b7a65726f206164647265737360a01b6064820152608401620002aa565b60008111620004be5760405162461bcd60e51b815260206004820152601d60248201527f5061796d656e7453706c69747465723a207368617265732061726520300000006044820152606401620002aa565b6001600160a01b0382166000908152600a6020526040902054156200053a5760405162461bcd60e51b815260206004820152602b60248201527f5061796d656e7453706c69747465723a206163636f756e7420616c726561647960448201526a206861732073686172657360a81b6064820152608401620002aa565b600c8054600181019091557fdf6966c971051c3d54ec59162606531493a51404a002842f56009d7e5cf4a8c70180546001600160a01b0319166001600160a01b0384169081179091556000908152600a60205260409020819055600854620005a490829062000927565b600855604080516001600160a01b0384168152602081018390527f40c340f65e17194d14ddddb073d3c9f888e3cb52b5aae0c6c7706b4fbc905fac910160405180910390a15050565b620005f762000610565b80516200060c9060129060208401906200066e565b5050565b6006546001600160a01b031633146200066c5760405162461bcd60e51b815260206004820181905260248201527f4f776e61626c653a2063616c6c6572206973206e6f7420746865206f776e65726044820152606401620002aa565b565b8280546200067c9062000942565b90600052602060002090601f016020900481019282620006a05760008555620006eb565b82601f10620006bb57805160ff1916838001178555620006eb565b82800160010185558215620006eb579182015b82811115620006eb578251825591602001919060010190620006ce565b50620006f992915062000798565b5090565b828054828255906000526020600020908101928215620006eb579160200282015b82811115620006eb578251829060ff169055916020019190600101906200071e565b828054828255906000526020600020908101928215620006eb579160200282015b82811115620006eb57825182546001600160a01b0319166001600160a01b0390911617825560209092019160019091019062000761565b5b80821115620006f9576000815560010162000799565b634e487b7160e01b600052604160045260246000fd5b80516001600160a01b0381168114620007dd57600080fd5b919050565b600080600060608486031215620007f857600080fd5b83516001600160401b03808211156200081057600080fd5b818601915086601f8301126200082557600080fd5b8151818111156200083a576200083a620007af565b604051601f8201601f19908116603f01168101908382118183101715620008655762000865620007af565b816040528281526020935089848487010111156200088257600080fd5b600091505b82821015620008a6578482018401518183018501529083019062000887565b82821115620008b85760008484830101525b8097505050508086015193505050620008d460408501620007c5565b90509250925092565b634e487b7160e01b600052603260045260246000fd5b634e487b7160e01b600052601160045260246000fd5b6000600019821415620009205762000920620008f3565b5060010190565b600082198211156200093d576200093d620008f3565b500190565b600181811c908216806200095757607f821691505b602082108114156200097957634e487b7160e01b600052602260045260246000fd5b50919050565b613005806200098f6000396000f3fe6080604052600436106102975760003560e01c80638da5cb5b1161015a578063c6682862116100c1578063e222c7f91161007a578063e222c7f91461083f578063e33b7de314610854578063e985e9c514610869578063ebf0c71714610889578063f2c4ce1e1461089f578063f2fde38b146108bf57600080fd5b8063c668286214610768578063c87b56dd1461077d578063ce7c2ac21461079d578063d5abeb01146107d3578063d79779b2146107e9578063da3ef23f1461081f57600080fd5b8063a45063c011610113578063a45063c0146106ca578063a475b5dd146106eb578063b3ab66b014610700578063b88d4fde14610713578063c45ac05014610733578063c4ae31681461075357600080fd5b80638da5cb5b1461060e578063954dc3e31461062c57806395d89b411461063f5780639852595c14610654578063a22cb4651461068a578063a3f8eace146106aa57600080fd5b806342842e0e116101fe5780636c0360eb116101b75780636c0360eb1461055757806370a082311461056c578063715018a61461058c5780637cb64759146105a15780638b83209b146105c15780638cc4de19146105e157600080fd5b806342842e0e1461049e57806348b75044146104be57806351830227146104de57806355f804b3146104fd5780635c975abb1461051d5780636352211e1461053757600080fd5b806318160ddd1161025057806318160ddd146103cb57806319165587146103ee57806323b872dd1461040e578063343937431461042e5780633a98ef3914610443578063406072a91461045857600080fd5b806301ffc9a7146102e557806306fdde031461031a578063081812fc1461033c578063081c8c4414610374578063095ea7b3146103895780631798d58b146103ab57600080fd5b366102e0577f6ef95f06320e7a25a04a175ca677b7052bdd97131872c2192525a629f51be77033604080516001600160a01b0390921682523460208301520160405180910390a1005b600080fd5b3480156102f157600080fd5b5061030561030036600461278c565b6108df565b60405190151581526020015b60405180910390f35b34801561032657600080fd5b5061032f610931565b6040516103119190612801565b34801561034857600080fd5b5061035c610357366004612814565b6109c3565b6040516001600160a01b039091168152602001610311565b34801561038057600080fd5b5061032f6109ea565b34801561039557600080fd5b506103a96103a4366004612842565b610a78565b005b3480156103b757600080fd5b506015546103059062010000900460ff1681565b3480156103d757600080fd5b506103e0610b93565b604051908152602001610311565b3480156103fa57600080fd5b506103a961040936600461286e565b610ba3565b34801561041a57600080fd5b506103a961042936600461288b565b610c87565b34801561043a57600080fd5b506103a9610cb8565b34801561044f57600080fd5b506008546103e0565b34801561046457600080fd5b506103e06104733660046128cc565b6001600160a01b039182166000908152600e6020908152604080832093909416825291909152205490565b3480156104aa57600080fd5b506103a96104b936600461288b565b610cdf565b3480156104ca57600080fd5b506103a96104d93660046128cc565b610cfa565b3480156104ea57600080fd5b5060155461030590610100900460ff1681565b34801561050957600080fd5b506103a9610518366004612991565b610e08565b34801561052957600080fd5b506015546103059060ff1681565b34801561054357600080fd5b5061035c610552366004612814565b610e27565b34801561056357600080fd5b5061032f610e87565b34801561057857600080fd5b506103e061058736600461286e565b610e94565b34801561059857600080fd5b506103a9610f1a565b3480156105ad57600080fd5b506103a96105bc366004612814565b610f2e565b3480156105cd57600080fd5b5061035c6105dc366004612814565b610f3b565b3480156105ed57600080fd5b506103e06105fc36600461286e565b60176020526000908152604090205481565b34801561061a57600080fd5b506006546001600160a01b031661035c565b6103a961063a3660046129da565b610f6b565b34801561064b57600080fd5b5061032f61126d565b34801561066057600080fd5b506103e061066f36600461286e565b6001600160a01b03166000908152600b602052604090205490565b34801561069657600080fd5b506103a96106a5366004612a74565b61127c565b3480156106b657600080fd5b506103e06106c536600461286e565b611287565b3480156106d657600080fd5b50601554610305906301000000900460ff1681565b3480156106f757600080fd5b506103a96112cf565b6103a961070e366004612814565b6112e8565b34801561071f57600080fd5b506103a961072e366004612aa2565b6114be565b34801561073f57600080fd5b506103e061074e3660046128cc565b6114f6565b34801561075f57600080fd5b506103a96115d0565b34801561077457600080fd5b5061032f6115ec565b34801561078957600080fd5b5061032f610798366004612814565b6115f9565b3480156107a957600080fd5b506103e06107b836600461286e565b6001600160a01b03166000908152600a602052604090205490565b3480156107df57600080fd5b506103e060115481565b3480156107f557600080fd5b506103e061080436600461286e565b6001600160a01b03166000908152600d602052604090205490565b34801561082b57600080fd5b506103a961083a366004612991565b611777565b34801561084b57600080fd5b506103a9611792565b34801561086057600080fd5b506009546103e0565b34801561087557600080fd5b506103056108843660046128cc565b6117bb565b34801561089557600080fd5b506103e0600f5481565b3480156108ab57600080fd5b506103a96108ba366004612991565b611887565b3480156108cb57600080fd5b506103a96108da36600461286e565b6118a2565b60006001600160e01b031982166380ac58cd60e01b148061091057506001600160e01b03198216635b5e139f60e01b145b8061092b57506301ffc9a760e01b6001600160e01b03198316145b92915050565b60606000805461094090612b22565b80601f016020809104026020016040519081016040528092919081815260200182805461096c90612b22565b80156109b95780601f1061098e576101008083540402835291602001916109b9565b820191906000526020600020905b81548152906001019060200180831161099c57829003601f168201915b5050505050905090565b60006109ce8261191b565b506000908152600460205260409020546001600160a01b031690565b601380546109f790612b22565b80601f0160208091040260200160405190810160405280929190818152602001828054610a2390612b22565b8015610a705780601f10610a4557610100808354040283529160200191610a70565b820191906000526020600020905b815481529060010190602001808311610a5357829003601f168201915b505050505081565b6000610a8382610e27565b9050806001600160a01b0316836001600160a01b03161415610af65760405162461bcd60e51b815260206004820152602160248201527f4552433732313a20617070726f76616c20746f2063757272656e74206f776e656044820152603960f91b60648201526084015b60405180910390fd5b336001600160a01b0382161480610b125750610b1281336117bb565b610b845760405162461bcd60e51b815260206004820152603d60248201527f4552433732313a20617070726f76652063616c6c6572206973206e6f7420746f60448201527f6b656e206f776e6572206f7220617070726f76656420666f7220616c6c0000006064820152608401610aed565b610b8e838361197a565b505050565b6000610b9e60195490565b905090565b6001600160a01b0381166000908152600a6020526040902054610bd85760405162461bcd60e51b8152600401610aed90612b5d565b6000610be382611287565b905080610c025760405162461bcd60e51b8152600401610aed90612ba3565b8060096000828254610c149190612c04565b90915550506001600160a01b0382166000908152600b60205260409020805482019055610c4182826119e8565b604080516001600160a01b0384168152602081018390527fdf20fd1e76bc69d672e4814fafb2c449bba3a5369d8359adf9e05e6fde87b056910160405180910390a15050565b610c913382611b01565b610cad5760405162461bcd60e51b8152600401610aed90612c1c565b610b8e838383611b5f565b610cc0611cc3565b6015805462ff0000198116620100009182900460ff1615909102179055565b610b8e838383604051806020016040528060008152506114be565b6001600160a01b0381166000908152600a6020526040902054610d2f5760405162461bcd60e51b8152600401610aed90612b5d565b6000610d3b83836114f6565b905080610d5a5760405162461bcd60e51b8152600401610aed90612ba3565b6001600160a01b0383166000908152600d602052604081208054839290610d82908490612c04565b90915550506001600160a01b038084166000908152600e60209081526040808320938616835292905220805482019055610dbd838383611d1d565b604080516001600160a01b038481168252602082018490528516917f3be5b7a71e84ed12875d241991c70855ac5817d847039e17a9d895c1ceb0f18a910160405180910390a2505050565b610e10611cc3565b8051610e239060129060208401906126dd565b5050565b6000818152600260205260408120546001600160a01b03168061092b5760405162461bcd60e51b8152602060048201526018602482015277115490cdcc8c4e881a5b9d985b1a59081d1bdad95b88125160421b6044820152606401610aed565b601280546109f790612b22565b60006001600160a01b038216610efe5760405162461bcd60e51b815260206004820152602960248201527f4552433732313a2061646472657373207a65726f206973206e6f7420612076616044820152683634b21037bbb732b960b91b6064820152608401610aed565b506001600160a01b031660009081526003602052604090205490565b610f22611cc3565b610f2c6000611d6f565b565b610f36611cc3565b600f55565b6000600c8281548110610f5057610f50612c69565b6000918252602090912001546001600160a01b031692915050565b8181610fe282828080602002602001604051908101604052809392919081815260200183836020028082843760009201919091525050600f546040516bffffffffffffffffffffffff193360601b166020820152909250603401905060405160208183030381529060405280519060200120611dc1565b15156001146110035760405162461bcd60e51b8152600401610aed90612c7f565b3332146110225760405162461bcd60e51b8152600401610aed90612c7f565b336001600160a01b0387161461107a5760405162461bcd60e51b815260206004820152601860248201527f43727970746f50756e6b733a204e6f7420616c6c6f77656400000000000000006044820152606401610aed565b60155462010000900460ff166110d25760405162461bcd60e51b815260206004820152601b60248201527f43727970746f50756e6b733a2050726573616c65206973204f464600000000006044820152606401610aed565b60155460ff16156111255760405162461bcd60e51b815260206004820152601f60248201527f43727970746f50756e6b733a20436f6e747261637420697320706175736564006044820152606401610aed565b6016548511156111475760405162461bcd60e51b8152600401610aed90612cab565b60165433600090815260176020526040902054611165908790612c04565b11156111835760405162461bcd60e51b8152600401610aed90612cab565b600061118e60195490565b60115490915061119e8783612c04565b11156111ec5760405162461bcd60e51b815260206004820181905260248201527f43727970746f50756e6b733a206d617820737570706c792065786365656465646044820152606401610aed565b34866018546111fb9190612cf5565b11156112195760405162461bcd60e51b8152600401610aed90612d14565b3360009081526017602052604081208054889290611238908490612c04565b90915550600090505b8681101561126357611251611dd7565b8061125b81612d57565b915050611241565b5050505050505050565b60606001805461094090612b22565b610e23338383611e0f565b60008061129360095490565b61129d9047612c04565b90506112c883826112c3866001600160a01b03166000908152600b602052604090205490565b611ede565b9392505050565b6112d7611cc3565b6015805461ff001916610100179055565b3332146113075760405162461bcd60e51b8152600401610aed90612c7f565b6015546301000000900460ff166113605760405162461bcd60e51b815260206004820152601e60248201527f43727970746f50756e6b733a205075626c696353616c65206973204f464600006044820152606401610aed565b60155460ff16156113b35760405162461bcd60e51b815260206004820152601f60248201527f43727970746f50756e6b733a20436f6e747261637420697320706175736564006044820152606401610aed565b600081116114035760405162461bcd60e51b815260206004820152601860248201527f43727970746f50756e6b733a207a65726f20616d6f756e7400000000000000006044820152606401610aed565b600061140e60195490565b60115490915061141e8383612c04565b111561146c5760405162461bcd60e51b815260206004820181905260248201527f43727970746f50756e6b733a204d617820737570706c792065786365656465646044820152606401610aed565b348260185461147b9190612cf5565b11156114995760405162461bcd60e51b8152600401610aed90612d14565b60005b82811015610b8e576114ac611dd7565b806114b681612d57565b91505061149c565b6114c83383611b01565b6114e45760405162461bcd60e51b8152600401610aed90612c1c565b6114f084848484611f1c565b50505050565b6001600160a01b0382166000908152600d602052604081205481906040516370a0823160e01b81523060048201526001600160a01b038616906370a082319060240160206040518083038186803b15801561155057600080fd5b505afa158015611564573d6000803e3d6000fd5b505050506040513d601f19601f820116820180604052508101906115889190612d72565b6115929190612c04565b6001600160a01b038086166000908152600e60209081526040808320938816835292905220549091506115c89084908390611ede565b949350505050565b6115d8611cc3565b6015805460ff19811660ff90911615179055565b601480546109f790612b22565b6000818152600260205260409020546060906001600160a01b03166116785760405162461bcd60e51b815260206004820152602f60248201527f4552433732314d657461646174613a2055524920717565727920666f72206e6f60448201526e3732bc34b9ba32b73a103a37b5b2b760891b6064820152608401610aed565b601554610100900460ff16611719576013805461169490612b22565b80601f01602080910402602001604051908101604052809291908181526020018280546116c090612b22565b801561170d5780601f106116e25761010080835404028352916020019161170d565b820191906000526020600020905b8154815290600101906020018083116116f057829003601f168201915b50505050509050919050565b6000611723611f4f565b9050600081511161174357604051806020016040528060008152506112c8565b8061174d84611f5e565b601460405160200161176193929190612d8b565b6040516020818303038152906040529392505050565b61177f611cc3565b8051610e239060149060208401906126dd565b61179a611cc3565b6015805463ff00000019811663010000009182900460ff1615909102179055565b60105460405163c455279160e01b81526001600160a01b03848116600483015260009281169190841690829063c45527919060240160206040518083038186803b15801561180857600080fd5b505afa15801561181c573d6000803e3d6000fd5b505050506040513d601f19601f820116820180604052508101906118409190612e4f565b6001600160a01b0316141561185957600191505061092b565b6001600160a01b0380851660009081526005602090815260408083209387168352929052205460ff166115c8565b61188f611cc3565b8051610e239060139060208401906126dd565b6118aa611cc3565b6001600160a01b03811661190f5760405162461bcd60e51b815260206004820152602660248201527f4f776e61626c653a206e6577206f776e657220697320746865207a65726f206160448201526564647265737360d01b6064820152608401610aed565b61191881611d6f565b50565b6000818152600260205260409020546001600160a01b03166119185760405162461bcd60e51b8152602060048201526018602482015277115490cdcc8c4e881a5b9d985b1a59081d1bdad95b88125160421b6044820152606401610aed565b600081815260046020526040902080546001600160a01b0319166001600160a01b03841690811790915581906119af82610e27565b6001600160a01b03167f8c5be1e5ebec7d5bd14f71427d1e84f3dd0314c0f7b2291e5b200ac8c7c3b92560405160405180910390a45050565b80471015611a385760405162461bcd60e51b815260206004820152601d60248201527f416464726573733a20696e73756666696369656e742062616c616e63650000006044820152606401610aed565b6000826001600160a01b03168260405160006040518083038185875af1925050503d8060008114611a85576040519150601f19603f3d011682016040523d82523d6000602084013e611a8a565b606091505b5050905080610b8e5760405162461bcd60e51b815260206004820152603a60248201527f416464726573733a20756e61626c6520746f2073656e642076616c75652c207260448201527f6563697069656e74206d617920686176652072657665727465640000000000006064820152608401610aed565b600080611b0d83610e27565b9050806001600160a01b0316846001600160a01b03161480611b345750611b3481856117bb565b806115c85750836001600160a01b0316611b4d846109c3565b6001600160a01b031614949350505050565b826001600160a01b0316611b7282610e27565b6001600160a01b031614611b985760405162461bcd60e51b8152600401610aed90612e6c565b6001600160a01b038216611bfa5760405162461bcd60e51b8152602060048201526024808201527f4552433732313a207472616e7366657220746f20746865207a65726f206164646044820152637265737360e01b6064820152608401610aed565b826001600160a01b0316611c0d82610e27565b6001600160a01b031614611c335760405162461bcd60e51b8152600401610aed90612e6c565b600081815260046020908152604080832080546001600160a01b03199081169091556001600160a01b0387811680865260038552838620805460001901905590871680865283862080546001019055868652600290945282852080549092168417909155905184937fddf252ad1be2c89b69c2b068fc378daa952ba7f163c4a11628f55a4df523b3ef91a4505050565b6006546001600160a01b03163314610f2c5760405162461bcd60e51b815260206004820181905260248201527f4f776e61626c653a2063616c6c6572206973206e6f7420746865206f776e65726044820152606401610aed565b604080516001600160a01b038416602482015260448082018490528251808303909101815260649091019091526020810180516001600160e01b031663a9059cbb60e01b179052610b8e908490611ffb565b600680546001600160a01b038381166001600160a01b0319831681179093556040519116919082907f8be0079c531659141344cd1fd0a4f28419497f9722a3daafe3b4186f6b6457e090600090a35050565b600082611dce85846120d0565b14949350505050565b611ddf612115565b611ded601980546001019055565b6000611df860195490565b9050611e04338261216f565b50610f2c6001600755565b816001600160a01b0316836001600160a01b03161415611e715760405162461bcd60e51b815260206004820152601960248201527f4552433732313a20617070726f766520746f2063616c6c6572000000000000006044820152606401610aed565b6001600160a01b03838116600081815260056020908152604080832094871680845294825291829020805460ff191686151590811790915591519182527f17307eab39ab6107e8899845ad3d59bd9653f200f220920489ca2b5937696c31910160405180910390a3505050565b6008546001600160a01b0384166000908152600a602052604081205490918391611f089086612cf5565b611f129190612eb1565b6115c89190612ed3565b611f27848484611b5f565b611f3384848484612189565b6114f05760405162461bcd60e51b8152600401610aed90612eea565b60606012805461094090612b22565b60606000611f6b83612296565b600101905060008167ffffffffffffffff811115611f8b57611f8b612905565b6040519080825280601f01601f191660200182016040528015611fb5576020820181803683370190505b5090508181016020015b600019016f181899199a1a9b1b9c1cb0b131b232b360811b600a86061a8153600a8504945084611fee57611ff3565b611fbf565b509392505050565b6000612050826040518060400160405280602081526020017f5361666545524332303a206c6f772d6c6576656c2063616c6c206661696c6564815250856001600160a01b031661236e9092919063ffffffff16565b90508051600014806120715750808060200190518101906120719190612f3c565b610b8e5760405162461bcd60e51b815260206004820152602a60248201527f5361666545524332303a204552433230206f7065726174696f6e20646964206e6044820152691bdd081cdd58d8d9595960b21b6064820152608401610aed565b600081815b8451811015611ff357612101828683815181106120f4576120f4612c69565b602002602001015161237d565b91508061210d81612d57565b9150506120d5565b600260075414156121685760405162461bcd60e51b815260206004820152601f60248201527f5265656e7472616e637947756172643a207265656e7472616e742063616c6c006044820152606401610aed565b6002600755565b610e238282604051806020016040528060008152506123a9565b60006001600160a01b0384163b1561228b57604051630a85bd0160e11b81526001600160a01b0385169063150b7a02906121cd903390899088908890600401612f59565b602060405180830381600087803b1580156121e757600080fd5b505af1925050508015612217575060408051601f3d908101601f1916820190925261221491810190612f96565b60015b612271573d808015612245576040519150601f19603f3d011682016040523d82523d6000602084013e61224a565b606091505b5080516122695760405162461bcd60e51b8152600401610aed90612eea565b805181602001fd5b6001600160e01b031916630a85bd0160e11b1490506115c8565b506001949350505050565b60008072184f03e93ff9f4daa797ed6e38ed64bf6a1f0160401b83106122d55772184f03e93ff9f4daa797ed6e38ed64bf6a1f0160401b830492506040015b6d04ee2d6d415b85acef81000000008310612301576d04ee2d6d415b85acef8100000000830492506020015b662386f26fc10000831061231f57662386f26fc10000830492506010015b6305f5e1008310612337576305f5e100830492506008015b612710831061234b57612710830492506004015b6064831061235d576064830492506002015b600a831061092b5760010192915050565b60606115c884846000856123dc565b60008183106123995760008281526020849052604090206112c8565b5060009182526020526040902090565b6123b383836124b7565b6123c06000848484612189565b610b8e5760405162461bcd60e51b8152600401610aed90612eea565b60608247101561243d5760405162461bcd60e51b815260206004820152602660248201527f416464726573733a20696e73756666696369656e742062616c616e636520666f6044820152651c8818d85b1b60d21b6064820152608401610aed565b600080866001600160a01b031685876040516124599190612fb3565b60006040518083038185875af1925050503d8060008114612496576040519150601f19603f3d011682016040523d82523d6000602084013e61249b565b606091505b50915091506124ac87838387612642565b979650505050505050565b6001600160a01b03821661250d5760405162461bcd60e51b815260206004820181905260248201527f4552433732313a206d696e7420746f20746865207a65726f20616464726573736044820152606401610aed565b6000818152600260205260409020546001600160a01b0316156125725760405162461bcd60e51b815260206004820152601c60248201527f4552433732313a20746f6b656e20616c7265616479206d696e746564000000006044820152606401610aed565b6000818152600260205260409020546001600160a01b0316156125d75760405162461bcd60e51b815260206004820152601c60248201527f4552433732313a20746f6b656e20616c7265616479206d696e746564000000006044820152606401610aed565b6001600160a01b038216600081815260036020908152604080832080546001019055848352600290915280822080546001600160a01b0319168417905551839291907fddf252ad1be2c89b69c2b068fc378daa952ba7f163c4a11628f55a4df523b3ef908290a45050565b606083156126ae5782516126a7576001600160a01b0385163b6126a75760405162461bcd60e51b815260206004820152601d60248201527f416464726573733a2063616c6c20746f206e6f6e2d636f6e74726163740000006044820152606401610aed565b50816115c8565b6115c883838151156126c35781518083602001fd5b8060405162461bcd60e51b8152600401610aed9190612801565b8280546126e990612b22565b90600052602060002090601f01602090048101928261270b5760008555612751565b82601f1061272457805160ff1916838001178555612751565b82800160010185558215612751579182015b82811115612751578251825591602001919060010190612736565b5061275d929150612761565b5090565b5b8082111561275d5760008155600101612762565b6001600160e01b03198116811461191857600080fd5b60006020828403121561279e57600080fd5b81356112c881612776565b60005b838110156127c45781810151838201526020016127ac565b838111156114f05750506000910152565b600081518084526127ed8160208601602086016127a9565b601f01601f19169290920160200192915050565b6020815260006112c860208301846127d5565b60006020828403121561282657600080fd5b5035919050565b6001600160a01b038116811461191857600080fd5b6000806040838503121561285557600080fd5b82356128608161282d565b946020939093013593505050565b60006020828403121561288057600080fd5b81356112c88161282d565b6000806000606084860312156128a057600080fd5b83356128ab8161282d565b925060208401356128bb8161282d565b929592945050506040919091013590565b600080604083850312156128df57600080fd5b82356128ea8161282d565b915060208301356128fa8161282d565b809150509250929050565b634e487b7160e01b600052604160045260246000fd5b600067ffffffffffffffff8084111561293657612936612905565b604051601f8501601f19908116603f0116810190828211818310171561295e5761295e612905565b8160405280935085815286868601111561297757600080fd5b858560208301376000602087830101525050509392505050565b6000602082840312156129a357600080fd5b813567ffffffffffffffff8111156129ba57600080fd5b8201601f810184136129cb57600080fd5b6115c88482356020840161291b565b600080600080606085870312156129f057600080fd5b84356129fb8161282d565b935060208501359250604085013567ffffffffffffffff80821115612a1f57600080fd5b818701915087601f830112612a3357600080fd5b813581811115612a4257600080fd5b8860208260051b8501011115612a5757600080fd5b95989497505060200194505050565b801515811461191857600080fd5b60008060408385031215612a8757600080fd5b8235612a928161282d565b915060208301356128fa81612a66565b60008060008060808587031215612ab857600080fd5b8435612ac38161282d565b93506020850135612ad38161282d565b925060408501359150606085013567ffffffffffffffff811115612af657600080fd5b8501601f81018713612b0757600080fd5b612b168782356020840161291b565b91505092959194509250565b600181811c90821680612b3657607f821691505b60208210811415612b5757634e487b7160e01b600052602260045260246000fd5b50919050565b60208082526026908201527f5061796d656e7453706c69747465723a206163636f756e7420686173206e6f2060408201526573686172657360d01b606082015260800190565b6020808252602b908201527f5061796d656e7453706c69747465723a206163636f756e74206973206e6f742060408201526a191d59481c185e5b595b9d60aa1b606082015260800190565b634e487b7160e01b600052601160045260246000fd5b60008219821115612c1757612c17612bee565b500190565b6020808252602d908201527f4552433732313a2063616c6c6572206973206e6f7420746f6b656e206f776e6560408201526c1c881bdc88185c1c1c9bdd9959609a1b606082015260800190565b634e487b7160e01b600052603260045260246000fd5b6020808252601290820152712737ba1030b63637bbb2b21037b934b3b4b760711b604082015260600190565b6020808252602a908201527f43727970746f50756e6b733a20596f752063616e2774206d696e7420736f206d60408201526975636820746f6b656e7360b01b606082015260800190565b6000816000190483118215151615612d0f57612d0f612bee565b500290565b60208082526023908201527f43727970746f50756e6b733a204e6f7420656e6f756768206574686572732073604082015262195b9d60ea1b606082015260800190565b6000600019821415612d6b57612d6b612bee565b5060010190565b600060208284031215612d8457600080fd5b5051919050565b600084516020612d9e8285838a016127a9565b855191840191612db18184848a016127a9565b8554920191600090600181811c9080831680612dce57607f831692505b858310811415612dec57634e487b7160e01b85526022600452602485fd5b808015612e005760018114612e1157612e3e565b60ff19851688528388019550612e3e565b60008b81526020902060005b85811015612e365781548a820152908401908801612e1d565b505083880195505b50939b9a5050505050505050505050565b600060208284031215612e6157600080fd5b81516112c88161282d565b60208082526025908201527f4552433732313a207472616e736665722066726f6d20696e636f72726563742060408201526437bbb732b960d91b606082015260800190565b600082612ece57634e487b7160e01b600052601260045260246000fd5b500490565b600082821015612ee557612ee5612bee565b500390565b60208082526032908201527f4552433732313a207472616e7366657220746f206e6f6e20455243373231526560408201527131b2b4bb32b91034b6b83632b6b2b73a32b960711b606082015260800190565b600060208284031215612f4e57600080fd5b81516112c881612a66565b6001600160a01b0385811682528416602082015260408101839052608060608201819052600090612f8c908301846127d5565b9695505050505050565b600060208284031215612fa857600080fd5b81516112c881612776565b60008251612fc58184602087016127a9565b919091019291505056fea2646970667358221220100bd9f6b6ae23d624f3a964204ddfe9a51f81da99ee3e78594ddfdc696caa0c64736f6c63430008090033697066733a2f2f516d595575774c6f69526238776f58774a434373723167766272384532314b757852746d56426d6e4831745a7a372f68696464656e2e6a736f6e",
  "linkReferences": {},
  "deployedLinkReferences": {}
}